S00B000044494F2E737265633D
S11300000C942A000C9447000C9447000C9447006D
S11300100C9447000C9447000C9447000C94470040
S11300200C9447000C9447000C9447000C94470030
S11300300C9447000C9447000C9447000C94470020
S11300400C9447000C9447000C9447000C94470010
S11300500C94470011241FBECFE5D8E0DEBFCDBF0E
S113006010E0A0E6B0E0E8E1F2E002C005900D92F5
S1130070A036B107D9F720E0A0E6B0E001C01D9298
S1130080A036B207E1F70E94EF000C940A010C9429
S113009000004F3FA1F4813049F028F0823049F04C
S11300A0833051F008958AB3682B14C087B3682B4A
S11300B016C084B3682B18C081B3682B1AC0813072
S11300C059F028F0823069F0833081F008958AB3C2
S11300D0609568236ABB089587B36095682367BBFE
S11300E0089584B36095682364BB089581B36095D3
S11300F0682361BB08954F3FA1F4813049F028F093
S1130100823049F0833051F008958BB3682B14C0CA
S113011088B3682B16C085B3682B18C082B3682BCC
S11301201AC0813059F028F0823069F0833081F0B0
S113013008958BB3609568236BBB089588B360956D
S1130140682368BB089585B36095682365BB0895EB
S113015082B36095682362BB0895813049F028F02A
S1130160823049F0833051F008954FEF60E108C0C8
S11301704FEF60E205C04FEF60E402C04FEF60E86C
S113018081E00C944900813049F028F0823049F034
S1130190833051F008954FEF60E108C04FEF60E203
S11301A005C04FEF60E402C04FEF60E881E00C94BB
S11301B07B00813049F028F0823049F0833051F0DF
S11301C0089540E060E108C040E060E205C040E01E
S11301D060E402C040E060E881E00C947B0080E0D1
S11301E00E94AD0080E00E94C30080E00E94D9001C
S11301F061E070E080E090E00E94080180E00E94ED
S1130200C30061E070E080E090E00E940801EDCF5F
S10B021000000895F894FFCFEB
S9030000FC
